:020000040800F2
:10000000B808002065020008B5130008591100085F
:10001000B11300085D040008211900080000000069
:10002000000000000000000000000000E9130008CC
:100030006104000800000000E5130008191500081D
:100040007F0200087F0200087F0200087F0200088C
:100050007F0200087F0200087F0200087F0200087C
:100060007F0200087F0200087F0200087F0200086C
:100070007F0200087F0200087F0200087F0200085C
:100080007F0200087F0200087F0200087F0200084C
:100090007F0200087F0200087F0200087F0200083C
:1000A0007F0200087F0200087F0200087F0200082C
:1000B0007F0200087F0200087F0200087F0200081C
:1000C0007F0200087F0200087F0200087F0200080C
:1000D0007F0200087F020008C11800087F020008A4
:1000E0007F0200087F0200087F0200087F020008EC
:1000F0007F0200087F0200087F0200087F020008DC
:100100007F0200087F0200087F0200087F020008CB
:100110007F0200087F0200087F0200087F020008BB
:100120007F0200087F0200087F0200087F020008AB
:100130007F02000800000000000000007F020008AD
:100140007F0200087F0200087F0200087F0200088B
:100150007F0200087F0200087F0200087F0200087B
:100160007F0200087F0200087F0200087F0200086B
:100170007F0200087F0200087F02000800000000E4
:10018000000000007F0200080000000000000000E6
:100190007F02000800000000000000007F0200084D
:1001A0000000000000000000000000007F020008C6
:1001B0007F0200087F0200087F0200087F0200081B
:1001C0007F02000800F002F800F03CF80AA090E876
:1001D000000C82448344AAF10107DA4501D100F002
:1001E00031F8AFF2090EBAE80F0013F0010F18BF93
:1001F000FB1A43F001031847E81A0000081B00002F
:10020000103A24BF78C878C1FAD8520724BF30C842
:1002100030C144BF04680C60704700000023002414
:1002200000250026103A28BF78C1FBD8520728BF06
:1002300030C148BF0B6070471FB501F037FD1FBDCF
:1002400010B510BD00F0D0F81146FFF7F5FF01F032
:10025000A3FB00F0EEF803B4FFF7F2FF03BC00F0DD
:10026000F5F800000948804709480047FEE7FEE727
:10027000FEE7FEE7FEE7FEE7FEE7FEE7FEE7FEE756
:1002800004480549054A064B704700003D16000822
:10029000C5010008B8020020B8080020B8040020FA
:1002A000B804002053EA020C00F069802DE9F04BFD
:1002B0004FF00006002B1FBFB3FA83F503FA05F4D5
:1002C00024FA05F65E4012BF1643B2FA82F502FA2E
:1002D00005F4C5F120051EBF22FA05FC44EA0C0412
:1002E000203556EA044C4FEA144418BF641C4FF002
:1002F00000084FF00009904271EB030C39D300293C
:1003000019BFB1FA81F701FA07F6B0FA80F700FADF
:1003100007F6C7F120071EBF20FA07FC46EA0C06C5
:100320002037B6FBF4FCA7EB0507103F07F01F0BC7
:10033000CBF120062CFA06F60CFA0BFB44BFB346B1
:100340000026202FA4BF5E464FF0000B5BEA060C90
:1003500008BF4FF0010B19EB0B0948EB0608ABFB8C
:10036000027C06FB02CC0BFB03CCC01B71EB0C0127
:10037000C1E70B46024641464846BDE8F08B13B53F
:10038000084318BF4FF0FF300146AFF30080BDE8CF
:100390001C4070474FF0000200B513469446964645
:1003A000203922BFA0E80C50A0E80C50B1F1200188
:1003B000BFF4F7AF090728BFA0E80C5048BF0CC036
:1003C0005DF804EB890028BF40F8042B08BF704794
:1003D00048BF20F8022B11F0804F18BF00F8012B06
:1003E0007047704770477047754600F02BF8AE466F
:1003F00005006946534620F00700854618B020B531
:10040000FFF73EFFBDE820404FF000064FF0000729
:100410004FF000084FF0000BAC46ACE8C009ACE868
:10042000C009ACE8C009ACE8C00921F007018D465D
:10043000704710B50446AFF300802046BDE8104079
:10044000FFF709BF0048704710000020014918203D
:10045000ABBEFEE72600020070470000FEE700008A
:1004600070470000EFF3108072B600BFFEE7000097
:100470002DE9F04F83B000F13E4202F1FF724FEAE6
:10048000B22241F600070192C4F2020707224FF0A0
:10049000010E00254FF0000A4FF00008B84208BFD7
:1004A000062200920AE000BF08F101080AF1040ADE
:1004B000B8F1100F05F1020500F0A2800C680EFAE9
:1004C00008FB14EA0B09EFD04C6804F0030CACF104
:1004D000010EBEF1010F11D80322876802FA05F65A
:1004E000CA68B743AA403A4382604268C4F300171F
:1004F00022EA0B0207FA08F73A434260BCF1030F05
:100500001CD0C26803238E6803FA05F7BA4306FAC3
:1005100005F73A43BCF1020FC2600FD16FF003023E
:1005200002EA580202440AF01C060F23176A03FA73
:1005300006F40B69A743B3403B43136202680323ED
:100540004F68AB409A4307F00303AB401A4317F4DC
:10055000403F4FF0010E0260A6D0002243F6440354
:100560000292C4F202031A6843F6004442F4804245
:100570001A601A68C4F2010402F480420292029ADC
:1005800028F003024FF6084B2244CFF6FF7B52F8C7
:100590000B300AF00C070F26BE4023EA060C019B25
:1005A000009E062B38BF1E4606FA07F747EA0C03E3
:1005B00042F80B3022684B6842EA0907DE0358BF55
:1005C00022EA0907276062689E0342EA090758BFCA
:1005D00022EA09076760A268DE0242EA090758BFFB
:1005E00022EA0907A76043F60C47C4F201073A68FC
:1005F0009B0242EA090358BF22EA09033B6053E722
:1006000003B0BDE8F08F00000069084018BF01206A
:1006100070470000426902EA0103914341EA034145
:1006200081617047002A08BF09048161704700009A
:1006300040F2B420C2F200000068704740F20400AB
:1006400040F2B421C2F20000C2F2000100780A6850
:10065000104408607047000080B543F60040C4F2C3
:100660000200016841F400710160016841F4806199
:100670000160016841F480710160032000F064F8BA
:10068000002000F005F800F02BF8002080BD0000ED
:10069000B0B540F20402C2F2000240F2000112784A
:1006A000C2F200014FF47A730968B3FBF2F2044618
:1006B000B1FBF2F1084600F077FB0F2C4FF001057B
:1006C0000CD858B94FF0FF3021460022002500F029
:1006D0002BF840F20800C2F2000004602846B0BDCA
:1006E00080B582B0002043F640010190C4F20201BF
:1006F0004A6842F480424A604A6802F480420192A9
:10070000019A0090086840F080500860086800F086
:10071000805000900098072000F016F802B080BDCD
:1007200080B501F0FFF880BD70B514460D46064651
:1007300001F008F92946224600F03EFE0146304607
:1007400001F008F970BD000080B501F015F980BD19
:1007500070B582B00020019043F64000C4F2020060
:100760000168402641F0805101600068C4F20E2605
:1007700000F080500190019847F204050120C4F276
:1007800000053060FFF754FF044600BF2868C0032F
:1007900006D4FFF74DFF001BB0F57A7FF6D90EE0C7
:1007A00001207060FFF744FF044600BF2868800303
:1007B00008D4FFF73DFF001BB0F57A7FF6D9032080
:1007C00002B070BD002002B070BD00002DE9F04104
:1007D000002800F08B8043F60808C4F202080446A3
:1007E000D8F8F8030D4600F00F00884207D288F8C9
:1007F000F853D8F8F80300F00F00A84276D120682B
:10080000810717D5410705D5D8F8001041F4E0510C
:10081000C8F80010010705D5D8F8001041F4604170
:10082000C8F80010D8F80010A26821F0F0011143B8
:10083000C8F80010C0073FD1D8F8F80300F00F0047
:10084000A84207D988F8F853D8F8F80300F00F0049
:10085000A8424BD12068410707D5D8F80010E268BC
:1008600021F4E0511143C8F80010000708D5D8F86A
:100870000000216920F4604040EAC100C8F800008F
:1008800000F07EF8D8F8001041F6C642C1F303111B
:10089000C0F60002515C40F2000220FA01F140F281
:1008A0000800C2F200000068C2F200021160FFF707
:1008B000EFFE0020BDE8F0816068811E022907D2AA
:1008C00058F8081C89015CBF0120BDE8F08110E0E8
:1008D000012807D158F8081C89035CBF0120BDE836
:1008E000F08106E058F8081C890702D40120BDE811
:1008F000F081D8F8001021F003010843C8F8000087
:10090000FFF796FE064641F2883700BFD8F8000090
:10091000616800F00C00B0EB810F8DD0FFF788FE0E
:10092000801BB842F2D90320BDE8F08140F20000FC
:10093000C2F200000068704780B5FFF7F7FF43F68A
:100940000801C4F20201096841F6D642C1F38221CE
:10095000C0F60002515CC84080BD000080B5FFF7C2
:10096000E5FF43F60801C4F20201096841F6D642E8
:10097000C1F34231C0F60002515CC84080BD0000A6
:1009800010B543F60404C4F202046068C0F38101A8
:1009900042F20040C0F2F400DFE801F04102071625
:1009A00041F20020C0F27A0010BD216801F03F0240
:1009B000216823684902C3F3881114D4A1FB000104
:1009C0000023FFF76FFC15E0216801F03F0221686A
:1009D00023684902C3F3881115D4A1FB0001002349
:1009E000FFF760FC16E041F20020C0F27A004843B5
:1009F000B0FBF2F021680222C1F3014102EB410198
:100A0000B0FBF1F010BD41F20020C0F27A00484383
:100A1000B0FBF2F02168C1F30271B0FBF1F010BD40
:100A20002DE9F04182B0002800F09680044600785D
:100A300043F60006C007C4F202062BD0B06800F0EF
:100A40000C00042820D0B06800F00C00082802D167
:100A50007068400218D4B06800F00C000C2802D175
:100A60007068400210D46568B5F5A02F00F0508181
:100A7000B5F5803F00F05081306820F48030306060
:100A8000306820F480204AE13068800302D5606835
:100A9000002861D02078800722D5B06810F00C0FB4
:100AA00011D0B06800F00C00082802D17068400234
:100AB00009D5B06800F00C000C2840F09B807068ED
:100AC000400200F197803068800702D5E068012875
:100AD00042D13068216920F0F80040EAC10030605E
:100AE000207800073CD42078400750D4A5698DB306
:100AF000B06800F00C00082840F0A480012D2BD035
:100B00007068E16900F480028A4225D1216A00F010
:100B10003F028A4220D147F6C071626A0140B1EBC0
:100B2000821F19D1A26A0023CFF6FF7303EBC232F2
:100B300000F440316FF30F0291420DD1E16A00F0F1
:100B40007062B2EB016F07D1216B00F0E040B0EBB7
:100B5000017F01D1002024E1012002B0BDE8F08135
:100B60006069002840F20000C4F247205AD00121F9
:100B7000C0F8801EFFF75CFD054600BF706F800760
:100B8000B1D4FFF755FD401B0228F7D994E0306C33
:100B900010F080580AD100200190306C40F0805055
:100BA0003064306C00F080500190019847F20007EB
:100BB000C4F200073868C0050FD4386840F480706C
:100BC0003860FFF735FD05463868C00505D4FFF7E6
:100BD0002FFD401B0228F7D96EE0A568052D53D0E4
:100BE000012D55D0306F20F001003067306F20F0BC
:100BF000040050E0E068002875D00020C4F24720CF
:100C000001210160FFF714FD054600BF3068800731
:100C10003FF55FAFFFF70CFD401B02284FF00300CC
:100C2000F4D9BEE00021C0F8801EFFF701FD0546A3
:100C3000706F80077FF557AFFFF7FAFC401B022863
:100C4000F6D939E00027C4F2472700203866FFF7BD
:100C5000EFFC022D05460BD13068800140F17D800C
:100C6000FFF7E6FC401B02284FF00300F4D998E0A0
:100C7000306880017FF56EAFFFF7DAFC401B022879
:100C80004FF00300F4D98CE0306F40F0040030677F
:100C9000306F40F001003067FFF7CAFC002D0546B9
:100CA00041F2883713D000BF306F800712D4FFF7AE
:100CB000BFFC401BB842F7D9032002B0BDE8F08169
:100CC000FFF7B6FC401BB8424FF0030069D8306F05
:100CD0008007F5D4B8F1000F7FF408AF306C20F036
:100CE0008050306402E70020C4F2472000210160F8
:100CF000FFF79EFC054600BF306880077FF5F0AE29
:100D0000FFF796FC401B02284FF00300F4D948E09F
:100D1000306840F480203060306840F480303060CB
:100D2000FFF786FC002D054613D000BF3068800316
:100D30003FF5B0AEFFF77CFC401B64284FF003008A
:100D4000F4D92EE0FFF774FC401B64284FF0030039
:100D500027D830688003F5D49CE604F11C052FCD1C
:100D6000246B08430021CFF6FF7140EA821001EBAB
:100D7000C3316FF30F0140EA0560084340EA047095
:100D8000706001203866FFF753FC0446306880012C
:100D90003FF5E0AEFFF74CFC001B02284FF00300CC
:100DA000F4D902B0BDE8F08180B500F09BFB80BDB6
:100DB00010B590F83C20012A4FF0020252D00123D6
:100DC00080F83C3080F83D200268D2F804E0D2F888
:100DD00008C00C682EF07003234341F2FF74C4F284
:100DE0000004A24253600DDC40F2FF73C4F2000322
:100DF0009A4215DCB2F1804F29D040F20043C4F290
:100E0000000322E040F2FF33C4F201039A4212DCF5
:100E100041F60003C4F200039A4218D0002312E006
:100E200040F60003C4F200039A4210D040F600439B
:100E3000C4F2000309E044F20003C4F201039A4241
:100E400005D040F20043C4F201039A4204D149683C
:100E50002CF08003194391600121002280F83D109D
:100E600080F83C20104610BD002804BF01207047C8
:100E700010B5044690F83D0028B9002084F83C00E5
:100E8000204600F01FF8022084F83D002068211D54
:100E900000F0DEFB012084F8460084F83E0084F870
:100EA0003F0084F8400084F8410084F8420084F850
:100EB000430084F8440084F8450084F83D00002095
:100EC00010BD000081B00068B0F1804F01D001B0CA
:100ED00070470020009043F64000C4F20200016811
:100EE00041F001010160006800F0010000900098ED
:100EF00001B0704790F83D1001291CBF01207047D8
:100F0000022180F83D10006841F2FF71C4F2000137
:100F100088420DDC40F2FF71C4F20001884215DC0A
:100F2000B0F1804F29D040F20041C4F2000122E02C
:100F300040F2FF31C4F20101884212DC41F60001A7
:100F4000C4F20001884218D0002112E040F60001EE
:100F5000C4F20001884210D040F60041C4F2000102
:100F600009E044F20001C4F20101884205D040F2D8
:100F70000041C4F20101884206D1816801F00701F5
:100F8000062904BF00207047016841F0010101609B
:100F90000020704710B5044690F83C0001284FF03F
:100FA000020008BF10BD012284F83C2084F83D00F7
:100FB00020684FF6777382689A4382600A684F2AE6
:100FC0000FDC1F2A22DD202A23D0302A21D0402AFC
:100FD0004DD14B68CA68194600F0E0FB20684021FB
:100FE0003BE06F2A17DDB2F5005F20D0B2F5805FDD
:100FF0002AD0702A3BD1D1E9012CCB68614600F0A0
:10100000B9FB2068816841F077011AE00AB1102A23
:101010002DD1114621E0502A18D0602A27D14B68E3
:10102000CA68194600F0CCFB2068602115E0D1E9C0
:10103000012CCB68614600F09DFB2068816841F47B
:101040008041816000200BE0002009E04B68CA6805
:10105000194600F0A3FB2068502100F097FB002008
:10106000012184F83D10002184F83C1010BD0120BE
:10107000F6E70000002804BF0120704710B50446C1
:1010800090F83D0028B9002084F83C00204600F08C
:1010900021F8242084F83D002068C16821F4005123
:1010A000C160204600F09EFB2068016921F4904158
:1010B0000161416921F02A014161C16841F4005197
:1010C000C16000202021206484F83D1084F83E1087
:1010D00010BD000080B586B044F200410068C4F243
:1010E0000001002288420592CDE90322029201927A
:1010F00001D006B080BD43F630000092C4F2020079
:10110000036943F400330361036903F4003300937C
:10111000009B0092036843F001030360006800F045
:101120000100009000980C2001900220CDE90202FD
:10113000032004900720059001F5DE3001A9FFF798
:1011400097F9262000210022FFF7EEFA2620FFF76C
:10115000E7FA06B080BD0000FEE7000040F2FC0C9C
:10116000C2F2000C9CF800200132D3B20A2B8CF89A
:10117000002088BF70475B0053FA82F240F2700390
:10118000C2F2000303EB820242F8080C22F8041CAE
:101190007047000081B044F20040C4F200000168D2
:1011A0000091009940680090009801B070470000DD
:1011B00044F21440C4F2000050E8001F41F0010165
:1011C00040E80012002AF7D17047000044F20C40BA
:1011D000C4F2000050E8001F41F0100140E8001286
:1011E000002AF7D17047000044F20C40C4F200001E
:1011F00050E8001F41F0200140E80012002AF7D11A
:101200007047000044F20040C4F200000068C0F3E0
:101210000010704744F20040C4F200000068C0F3C0
:101220004010704744F20C40C4F200000068C0F364
:101230000010704744F20C40C4F200000068C0F394
:101240004010704744F20440C4F200000068C0B28D
:1012500070470000F0B587B0002643F630000696D0
:10126000CDE90466CDE902660196C4F20200016888
:10127000002441F0040101600168C4F2020401F09D
:1012800004010191019901960168002241F0800159
:1012900001600168202701F0800101910199019608
:1012A000016841F001010160016801F00101019153
:1012B00001990196016841F0020101600068202156
:1012C00000F00200019001982046FFF7ABF94FF4BF
:1012D000005002904FF4041002ADCDE9030604F56E
:1012E00000602946FFF7C4F80120CDE90306204637
:1012F000294602970596FFF7BBF807B0F0BD00003E
:1013000080B586B040F218200021C2F200004FF0F4
:1013100080424FF0FF33CDE90411CDE90211CDE950
:101320000011C0E90021C0E9021301618161FFF7EA
:101330009BFD002818BFFFF795F84FF480500290EE
:1013400040F21820C2F2000002A9FFF723FE002895
:1013500018BFFFF787F80020CDE9000040F2182001
:10136000C2F200006946FFF723FD002818BFFFF70F
:1013700079F806B080BD000080B540F2602044F2EC
:101380000041C2F20000C4F2000100234FF00C0C37
:101390004FF4E13280E80E00C0E90333C0E905C331
:1013A000C361FFF767FE002818BFFFF75BF880BD39
:1013B000FEE70000FEE7000000F0070080F00703F2
:1013C000042B28BF04234FF0FF3C03380CFA03F32F
:1013D00038BF0020994381400CFA00F022EA000057
:1013E0000843704770470000704700002DE9F04F38
:1013F00081B040F2FC00C2F20000007800286ED0FC
:1014000040F27000C2F2000040F2F20940F2FD0426
:1014100040F2E807051D0026C2F20009C2F20004EE
:101420004FF0010AC2F2000740F6B83B4FF0000847
:101430000DE000BF05F8046C40F2FC00C2F20000B1
:10144000007808F10108804505F10C0547D22868AD
:10145000A988FFF7D9F809F8080048B914F8081066
:10146000012902BF04F8080005F803AC07F808607A
:10147000012809D114F80810002902BF04F8080057
:1014800005F8036C07F808A015F8030C012804D12F
:1014900035F8020C013025F8020C35F8020C5845DD
:1014A00008D317F80810012904D1032045F8040CCB
:1014B000C2E700BF40F2DC51884207D317F808109A
:1014C000012903D1022045F8040CB5E76428B1D303
:1014D00017F808000128ADD145F804ACACE701B01D
:1014E000BDE8F08FB0B501380024B4EB106F1CBF1D
:1014F0000120B0BD4EF21005CEF2000568604FF03D
:10150000FF300F2100F026FA0720AC60286020464B
:10151000B0BD00000000000010B5FFF78FF840F2EA
:10152000B020C2F20000016840F21824C2F20004A8
:10153000013122680160106840F001001060FFF77F
:1015400055FF246841F21111206A084208D1206A2F
:1015500040F24441084203D1206820F0010020609D
:10156000606A00F091FA9FED080B53EC102B00F02D
:101570009FFA41EC100B40F2A820C2F2000080ED6F
:10158000000B0020606210BDCF9BE0DE65DC573EA3
:1015900010B594B007AC20463421FEF7FBFE0020C6
:1015A00043F640010690CDE90400CDE90200019028
:1015B000C4F202010A6842F080520A60096801F030
:1015C00080510191019947F200010190C4F200019C
:1015D0000A6842F440420A600968012201F440416D
:1015E000019101990221CDE90D1008200F90B4203E
:1015F0000A921022CDE91001204607910B92CDE905
:101600001211FFF70DFAB0B9FFF7A2F898B90F2041
:10161000029002200390002004904FF4A050059007
:101620004FF48050069002A80521FFF7CFF800285C
:1016300004BF14B010BDFEF715FF00004EF6885031
:10164000CEF20000016841F47001016070470000B3
:1016500010B540F6FF3E0368C4F2000E40F2004CA5
:101660007045C4F2010C0FDCB0F1804F19D040F28C
:101670000042C4F20002904213D040F60002C4F2CD
:10168000000290420DD010E040F60042C4F2000289
:10169000904206D0604504D00022C4F2010290427C
:1016A00003D14A6823F07003134341F6FF72C4F27A
:1016B000000290420DDC70451FDCB0F1804F41D03C
:1016C00040F20042C4F2000290423BD040F60002D9
:1016D00021E043F6FF72C4F20102904220DC42F2A4
:1016E0000002C4F2000290422CD00022C4F2010297
:1016F000904227D0604525D028E040F60042C4F251
:10170000000290421ED041F60002C4F20002904254
:1017100018D041F60042C4F20002904212D015E007
:1017200044F20002C4F2010290420BD044F60002DF
:10173000C4F20102904205D044F20042C4F2010218
:10174000904203D1CA6823F44073134323F080020C
:101750004B69D1F800E08C681A430260C46240F41F
:101760008062C0F828E0624504BF09690163012175
:10177000416110BDD0F808C011432CF47F4C41EA00
:10178000032141EA0C01816070470000826822F069
:101790007002114341F0070181607047D0F820C00A
:1017A000036A23F001030362836923F0F00343EA31
:1017B00002122CF00A031943826101627047000093
:1017C000036A23F0100303628369D0F820C023F476
:1017D000704343EA02322CF0A00343EA0111826114
:1017E0000162704710B504460068D4E902C223695B
:1017F000016921F4405111430161626943EA0C011E
:10180000E3691143C268194349F20C639A431143D7
:10181000C1604169A26921F4407141F20043114362
:1018200040F48062C4F201039A42416102D1FFF7A1
:1018300095F801E0FFF780F8E16963681922B1F5D6
:10184000004FA0FB02011CD15A00DB0FFEF72AFD5E
:1018500048F21F51C5F2EB11A0FB01235A096FF0AA
:10186000630302FB0300322303EBC000A0FB010172
:101870004FF4F87000EA111000EB0210C1F34211AE
:101880001AE09A009B0FFEF70DFD48F21F51C5F2BA
:10189000EB11A0FB01235A096FF0630302FB030065
:1018A000322303EB0010A0FB0101F02000EA5110ED
:1018B00000EB0210C1F3431122680843906010BD91
:1018C00080B5FFF7A7FC98B1FFF7B4FC80B1FFF734
:1018D00099FC68B9FFF7B6FC40F20821C2F200019A
:1018E0000A7840F20713C2F200039854501C0870A3
:1018F000FFF798FC90B1FFF785FC002808BF80BD7A
:10190000FFF748FC40F20820C2F2000000210170FD
:1019100040F20720C2F200000121017080BD0000EA
:10192000FEE70000002848BF704700F01F010122B9
:1019300002FA01F14EF200124009CEF2000242F822
:10194000201070474EF60C50CEF200000068C0F335
:10195000022070474EF6145300F00F02CEF200033F
:1019600009011A4400F16043B0F1FF3FC8BF03F51D
:1019700064421170704700004EF60C51CEF2000127
:101980000A684FF6FF031A4060F30A2242F08060B3
:1019900040F0FD7008607047FEF75EFEFFF7F8FD4F
:1019A000FFF758FCFFF7E8FCFFF7AAFCFFF71CFC69
:1019B000FFF7FEFBFFF70AFC40F21824C2F2000416
:1019C0002046FFF797FA206841F21112016A11428E
:1019D00008D1016A40F24442114203D1016821F06A
:1019E000010101600020C4F2020000F500604FF424
:1019F0000051FFF7B3FB40F2700540F2072440F2BC
:101A0000071640F20C2A40F2102B40F2142840F244
:101A1000B029C2F200050027C2F20004C2F200069B
:101A2000C2F2000AC2F2000BC2F20008C2F20009C0
:101A300028780138C1B2022907D840B20FA151F865
:101A400020002F700168013101602078012808D141
:101A50003078522802BFCAF80070CBF80070C8F87E
:101A60000070D9F80000FA28E2D30020C4F2020086
:101A70002021C9F80070FEF7CDFDD9E7140200203F
:101A8000100200200C020020B0FA80F310FA03F1DB
:101A90000AD0C3F11D0303F580634FEA03524FEAF6
:101AA000415002EBD12170474FF000007047000019
:101AB00070B5DFF848C11CEA111E1EBF1CEA1315E1
:101AC0009EEA0C0F95EA0C0F00F06F8081EA030488
:101AD0004EEAD47EAE4421EA4C1123EA4C1341F481
:101AE000801143F48013AEF17F7EA1FB024CA0FB7A
:101AF0000365361955EB0C05A1FB034C4CF10003B3
:101B0000A0FB021C16EB0C06654153F100030942D1
:101B100018BF46F0010613F4007F0BD14FEA0331E2
:101B20004FEA053041EA155140EA165034036FF090
:101B300003020AE04FEAC3214FEAC52041EA5551AA
:101B400040EA5650F4026FF0020202EB2E4201EB23
:101B5000025585EACE710AD05FEA440C18BF24F022
:101B6000004450F1000041F1000120EAD47040F23D
:101B7000FE7C624500D270BDA84214BF4FF0804485
:101B80004FF04044002E08BF0024BEF1806FA8BF74
:101B9000A1F1C041BDE8704080F2828001F1C041F6
:101BA00001F000414FF0000070470CEA13159EEA67
:101BB0000C0F18BF95EA0C0F06D081EA030E4FF008
:101BC00000000EF0004170BD00F01CF88900013EDD
:101BD00000F007B800F009B84FEA430C5FEA5C5C1C
:101BE00008D081EA030100F05BB84FEA410C5FEADC
:101BF0005C5CF6D102494FF0000070470000FF071F
:101C00000000F87F0EF1020E2EF0030E5EF8046B5A
:101C1000364205D4012A43EB030515F5001F12D8FF
:101C2000012841EB010C1CF5001F0CD80ED14FEA26
:101C3000D17C0CEB4C0C0CF1020C15F5001F08BF0D
:101C40004CEBD37C04E04FF0080C01E04FEAD37C6E
:101C50000CEB4C0526FA05F606F00706B6F1040C67
:101C600006D20EEB860CBDE870404CF0010C6047CC
:101C7000DFE80CF0090B02024FF00041A1F5002152
:101C80004FF0000070BD19461046012851EB0104C9
:101C900018BFD4F5001484BF002001F0004170BDCE
:101CA0000808A0F500114FEA31017047F1EE100A63
:101CB0004FF6FF71C0F2C03120EA010040F04070E1
:101CC000E1EE100A70470000000000000000010271
:101CD00003040607080900000000010203040000D5
:101CE000001D000800000020100000000002000895
:101CF000101D000810000020A80800001C020008A9
:101D00000024F400010000001000000000000000AA
:04000005080001C529
:00000001FF
